{
  "_format": "hh-sol-artifact-1",
  "contractName": "BuyMeACoffee",
  "sourceName": "contracts/BuyMeACoffee.sol",
  "abi": [
    {
      "inputs": [],
      "stateMutability": "nonpayable",
      "type": "constructor"
    },
    {
      "anonymous": false,
      "inputs": [
        {
          "indexed": true,
          "internalType": "address",
          "name": "from",
          "type": "address"
        },
        {
          "indexed": false,
          "internalType": "uint256",
          "name": "timestamp",
          "type": "uint256"
        },
        {
          "indexed": false,
          "internalType": "string",
          "name": "name",
          "type": "string"
        },
        {
          "indexed": false,
          "internalType": "string",
          "name": "message",
          "type": "string"
        },
        {
          "indexed": false,
          "internalType": "uint32",
          "name": "amount",
          "type": "uint32"
        }
      ],
      "name": "NewCoffee",
      "type": "event"
    },
    {
      "inputs": [
        {
          "internalType": "string",
          "name": "_name",
          "type": "string"
        },
        {
          "internalType": "string",
          "name": "_message",
          "type": "string"
        },
        {
          "internalType": "uint32",
          "name": "_amount",
          "type": "uint32"
        }
      ],
      "name": "buyCoffee",
      "outputs": [],
      "stateMutability": "payable",
      "type": "function"
    },
    {
      "inputs": [],
      "name": "getMemos",
      "outputs": [
        {
          "components": [
            {
              "internalType": "address",
              "name": "from",
              "type": "address"
            },
            {
              "internalType": "uint256",
              "name": "timestamp",
              "type": "uint256"
            },
            {
              "internalType": "string",
              "name": "name",
              "type": "string"
            },
            {
              "internalType": "string",
              "name": "message",
              "type": "string"
            },
            {
              "internalType": "uint32",
              "name": "amount",
              "type": "uint32"
            }
          ],
          "internalType": "struct BuyMeACoffee.Coffee[]",
          "name": "",
          "type": "tuple[]"
        }
      ],
      "stateMutability": "view",
      "type": "function"
    },
    {
      "inputs": [],
      "name": "withdrawTips",
      "outputs": [],
      "stateMutability": "nonpayable",
      "type": "function"
    }
  ],
  "bytecode": "0x608060405234801561001057600080fd5b5033600160006101000a81548173ffffffffffffffffffffffffffffffffffffffff021916908373ffffffffffffffffffffffffffffffffffffffff160217905550610b94806100616000396000f3fe6080604052600436106100345760003560e01c80633aaa74b214610039578063584b007414610050578063865c51721461006c575b600080fd5b34801561004557600080fd5b5061004e610097565b005b61006a600480360381019061006591906106f9565b6100f9565b005b34801561007857600080fd5b506100816102b7565b60405161008e91906109b4565b60405180910390f35b600160009054906101000a900473ffffffffffffffffffffffffffffffffffffffff1673ffffffffffffffffffffffffffffffffffffffff166108fc479081150290604051600060405180830381858888f193505050506100f757600080fd5b565b6000341161013c576040517f08c379a000000000000000000000000000000000000000000000000000000000815260040161013390610a33565b60405180910390fd5b60006040518060a001604052803373ffffffffffffffffffffffffffffffffffffffff1681526020014281526020018581526020018481526020018363ffffffff16815250908060018154018082558091505060019003906000526020600020906005020160009091909190915060008201518160000160006101000a81548173ffffffffffffffffffffffffffffffffffffffff021916908373ffffffffffffffffffffffffffffffffffffffff1602179055506020820151816001015560408201518160020190805190602001906102179291906104c0565b5060608201518160030190805190602001906102349291906104c0565b5060808201518160040160006101000a81548163ffffffff021916908363ffffffff16021790555050503373ffffffffffffffffffffffffffffffffffffffff167fc44ee046a164210e7c09731baf40728e6205505894a19bce156ba01af61edf5f428585856040516102aa9493929190610aaa565b60405180910390a2505050565b60606000805480602002602001604051908101604052809291908181526020016000905b828210156104b757838290600052602060002090600502016040518060a00160405290816000820160009054906101000a900473ffffffffffffffffffffffffffffffffffffffff1673ffffffffffffffffffffffffffffffffffffffff1673ffffffffffffffffffffffffffffffffffffffff1681526020016001820154815260200160028201805461036e90610b2c565b80601f016020809104026020016040519081016040528092919081815260200182805461039a90610b2c565b80156103e75780601f106103bc576101008083540402835291602001916103e7565b820191906000526020600020905b8154815290600101906020018083116103ca57829003601f168201915b5050505050815260200160038201805461040090610b2c565b80601f016020809104026020016040519081016040528092919081815260200182805461042c90610b2c565b80156104795780601f1061044e57610100808354040283529160200191610479565b820191906000526020600020905b81548152906001019060200180831161045c57829003601f168201915b505050505081526020016004820160009054906101000a900463ffffffff1663ffffffff1663ffffffff1681525050815260200190600101906102db565b50505050905090565b8280546104cc90610b2c565b90600052602060002090601f0160209004810192826104ee5760008555610535565b82601f1061050757805160ff1916838001178555610535565b82800160010185558215610535579182015b82811115610534578251825591602001919060010190610519565b5b5090506105429190610546565b5090565b5b8082111561055f576000816000905550600101610547565b5090565b6000604051905090565b600080fd5b600080fd5b600080fd5b600080fd5b6000601f19601f8301169050919050565b7f4e487b7100000000000000000000000000000000000000000000000000000000600052604160045260246000fd5b6105ca82610581565b810181811067ffffffffffffffff821117156105e9576105e8610592565b5b80604052505050565b60006105fc610563565b905061060882826105c1565b919050565b600067ffffffffffffffff82111561062857610627610592565b5b61063182610581565b9050602081019050919050565b82818337600083830152505050565b600061066061065b8461060d565b6105f2565b90508281526020810184848401111561067c5761067b61057c565b5b61068784828561063e565b509392505050565b600082601f8301126106a4576106a3610577565b5b81356106b484826020860161064d565b91505092915050565b600063ffffffff82169050919050565b6106d6816106bd565b81146106e157600080fd5b50565b6000813590506106f3816106cd565b92915050565b6000806000606084860312156107125761071161056d565b5b600084013567ffffffffffffffff8111156107305761072f610572565b5b61073c8682870161068f565b935050602084013567ffffffffffffffff81111561075d5761075c610572565b5b6107698682870161068f565b925050604061077a868287016106e4565b9150509250925092565b600081519050919050565b600082825260208201905092915050565b6000819050602082019050919050565b600073ffffffffffffffffffffffffffffffffffffffff82169050919050565b60006107db826107b0565b9050919050565b6107eb816107d0565b82525050565b6000819050919050565b610804816107f1565b82525050565b600081519050919050565b600082825260208201905092915050565b60005b83811015610844578082015181840152602081019050610829565b83811115610853576000848401525b50505050565b60006108648261080a565b61086e8185610815565b935061087e818560208601610826565b61088781610581565b840191505092915050565b61089b816106bd565b82525050565b600060a0830160008301516108b960008601826107e2565b5060208301516108cc60208601826107fb565b50604083015184820360408601526108e48282610859565b915050606083015184820360608601526108fe8282610859565b91505060808301516109136080860182610892565b508091505092915050565b600061092a83836108a1565b905092915050565b6000602082019050919050565b600061094a82610784565b610954818561078f565b935083602082028501610966856107a0565b8060005b858110156109a25784840389528151610983858261091e565b945061098e83610932565b925060208a0199505060018101905061096a565b50829750879550505050505092915050565b600060208201905081810360008301526109ce818461093f565b905092915050565b600082825260208201905092915050565b7f63616e277420627574206120636f666665652077697468203020657468000000600082015250565b6000610a1d601d836109d6565b9150610a28826109e7565b602082019050919050565b60006020820190508181036000830152610a4c81610a10565b9050919050565b610a5c816107f1565b82525050565b6000610a6d8261080a565b610a7781856109d6565b9350610a87818560208601610826565b610a9081610581565b840191505092915050565b610aa4816106bd565b82525050565b6000608082019050610abf6000830187610a53565b8181036020830152610ad18186610a62565b90508181036040830152610ae58185610a62565b9050610af46060830184610a9b565b95945050505050565b7f4e487b7100000000000000000000000000000000000000000000000000000000600052602260045260246000fd5b60006002820490506001821680610b4457607f821691505b60208210811415610b5857610b57610afd565b5b5091905056fea26469706673582212205c21a461fdf02c2f0a69a10fa8c603b6fa28846f552c92b7130e2a28d58588ce64736f6c63430008090033",
  "linkReferences": {},
  "deployedLinkReferences": {}
}